:020000040001F9
:10800000C83000209D810100B7810100B9810100C5
:108010000000000000000000000000000000000060
:10802000000000000000000000000000BB81010013
:108030000000000000000000BD810100BF810100C0
:10804000C1810100C1810100BD830100C181010026
:10805000C181010000000000C1810100C181010057
:10806000C1810100C1810100C1810100C181010004
:10807000C1810100C1810100C1810100C1810100F4
:10808000C1810100C1810100C1810100C1810100E4
:10809000C1810100C181010021830100C181010072
:1080A000C1810100C181010000000000000000004A
:1080B00000000000000000000000000000000000C0
:1080C00000F002F800F03EF80CA030C80838241880
:1080D0002D18A246671EAB4654465D46AC4201D100
:1080E00000F030F87E460F3E0FCCB64601263342F4
:1080F00000D0FB1AA246AB4633431847AC11000030
:10810000CC110000103A02D378C878C1FAD85207CF
:1081100001D330C830C101D504680C60704700003D
:108120000023002400250026103A01D378C1FBD893
:10813000520700D330C100D50B6070471FB51FBD7B
:1081400010B510BD00F0B8F81146FFF7F7FF00F0CA
:1081500071FD00F0D0F803B4FFF7F2FF03BC00F0AC
:10816000D7F8000070B505460C46164602E00FCC65
:108170000FC5103E102EFAD2082E02D303CC03C531
:10818000083E042E07D301CC01C5361F03E0217839
:108190002970641C6D1C761EF9D270BD03210C4839
:1081A00002680A4302600B4802680A4302600A48F8
:1081B00080470A480047FEE7FEE7FEE7FEE7FEE7E6
:1081C000FEE7000006480749074A084B70470000D1
:1081D000240500405405004059830100C18001007E
:1081E000C8200020C8300020C8280020C82800204F
:1081F000F8B5042A2CD3830712D00B78491C0370DE
:10820000401C521E83070BD00B78491C0370401C86
:10821000521E830704D00B78491C0370401C521E69
:108220008B079B0F05D0C91ADF002023DE1B08C96E
:108230000AE0FFF797FFF8BD1D4608C9FD401C4640
:10824000B4402C4310C0121F042AF5D2F308C91AF7
:10825000521EF0D40B78491C0370401C521EEAD405
:108260000B78491C0370401C012AE4D40978017082
:10827000F8BD01E004C0091F0429FBD28B0701D51A
:108280000280801CC90700D00270704700290BD003
:10829000C30702D00270401C491E022904D3830781
:1082A00002D50280801C891EE3E70022EEE700224F
:1082B000DFE7704770477047754600F025F8AE4617
:1082C000050069465346C008C000854618B020B571
:1082D000FFF778FF60BC00274908B6460026C0C5F6
:1082E000C0C5C0C5C0C5C0C5C0C5C0C5C0C5403D6E
:1082F00049008D46704710B50446C046C04620462A
:10830000FFF729FF10BD00000048704768200020DB
:1083100001491820ABBEFEE72600020070470000AE
:1083200070B50C480068002810D00A4800688047E3
:10833000044600BF2546002D06D000BF002211468E
:10834000284600F097F900BF00BF01E000F062FB93
:1083500070BD00000420002010B500F0D5FB0028FF
:1083600005D0104810494860C8131049886100F0D2
:10837000AFFB002802D001200D49886000F0FAFB15
:1083800000280ED00B480068012807D00A48094988
:10839000086000BF074800680128FBD1C0200549DC
:1083A000486110BDDFFF07C000050040006C0040C1
:1083B0000006004000EC06407593000010B5042054
:1083C000134903221202891849680140002901D08B
:1083D000012100E00021002918D0FF2109310C48BB
:1083E00000F01EFD002811D0FF210931084800F0DF
:1083F0001FFD00BF06480521090240188069C0B270
:10840000044908700846007800F088FE10BD00009E
:108410000020004000200020F7B582B00446164638
:108420000025378800203080606B00280CD0616BFD
:1084300008783B463246039900F01AFD0546002DA8
:1084400002D0284605B0F0BD206B00280AD03B467C
:108450003246206B039900F0DFFD0546002D01D068
:108460002846EFE72E20005D00280BD02E21085D66
:108470003B463246039900F0A7FB0546002D01D08C
:108480002846DFE72D20005D002809D03A46314616
:10849000039800F06BF90546002D01D02846D1E77E
:1084A000A078002809D03A463146039800F0F2F847
:1084B0000546002D01D02846C4E7E07800280BD0FF
:1084C000E17848B23B463246039900F034FA05465B
:1084D000002D01D02846B5E7606800280CD00020A8
:1084E000616808563B463246039900F0B8FD0546E0
:1084F000002D01D02846A5E7208900280DDD019731
:1085000000960622022120460830039B00F03CFE24
:108510000546002D01D0284694E7208A00280DDD6D
:10852000019700960722032120461030039B00F09C
:108530002BFE0546002D01D0284683E7208B00281E
:108540000DDD019700961522142120461830039B5B
:1085500000F01AFE0546002D01D0284672E7206A79
:1085600000280AD03B463246206A039900F0B0F951
:108570000546002D01D0284664E7606A00280AD02D
:108580003B463246606A039900F082FB0546002DA7
:1085900001D0284656E72C20005D00280ADD3B4626
:1085A00032462046039900F07EFC0546002D01D09E
:1085B000284647E7207800280AD03B463246204626
:1085C000039900F0A1FB0546002D01D0284639E7AC
:1085D000284637E70146C87804221040002801D118
:1085E000072070470020FCE730B595B0382107A878
:1085F000FFF75DFE1E480068009002216846017783
:10860000012181770621C1770121818569460C917D
:10861000002107A800F066F8044600BF2546002D9B
:1086200006D000BF00221146284600F023F800BF04
:1086300000BF182101A8FFF73AFE0021684601712A
:108640000173FF212D3181820021C18201A873DFD6
:10865000044600BF2546002D06D000BF002211466B
:10866000284600F007F800BF00BF15B030BD00007D
:10867000A492010000BFBFF34F8F04480449C860B3
:10868000BFF34F8F00BF00BFFEE700000400FA05F4
:1086900000ED00E0F8B505460C4617462088001DA1
:1086A000B84201D90C20F8BD684679DF0646002E95
:1086B00001D03046F7E70320218868542088401C09
:1086C00020801920218868542088401C2080208820
:1086D00041196846008800F04EFD2188401820802E
:1086E0000020E0E7F3B593B00D461F2112911191E0
:1086F0001398002814D01398FFF76CFF0446002C41
:1087000002D0204615B0F0BD12AA09A91398FFF7B0
:1087100083FE0446002C01D02046F3E709AE02E0B8
:10872000002600201290002D13D0284600F05CFC9B
:108730000446002C01D02046E4E711AA01A92846EE
:10874000FFF76AFE0446002C01D02046DAE701AFAD
:1087500002E000270020119010A88088C3B210A862
:108760000089C1B23A46304672DFCBE7FEB5054616
:108770000C46174620880930B84201D90C20FEBDAE
:10878000684671DF0646002E01D03046F7E7082024
:10879000218868542088401C20801B202188685430
:1087A0002088401C208021884819062200A9013118
:1087B000FFF71EFD2088801D208068460078002875
:1087C00002D12188685402E0012021886854208861
:1087D000401C20800020D2E710B50446204600F05F
:1087E0002DFB10BD7CB500BF002348221E49082088
:1087F00000F0BAFB054600BF2E46002E06D000BF93
:10880000002211463046FFF735FF00BF00BF00BF12
:10881000002000900190012069460870002001901E
:10882000684660DF114800F093FB044600BF254610
:10883000002D06D000BF002211462846FFF71AFF80
:1088400000BF00BF0A4800F0C3FB044600BF254636
:10885000002D06D000BF002211462846FFF70AFF70
:1088600000BF00BF7CBD000020200020D987010090
:10887000F98F010001460888062808DB08881922BC
:10888000D201904205DD0888104A904201D00720AD
:1088900070474888062808DB48881922D201904290
:1088A00005DD4888094A904201D00720F0E7088892
:1088B000064A904208D04888904205D008884A88E5
:1088C000904201DD0720E3E70020E1E7FFFF000021
:1088D000FFB581B006460D4614462088801D0499D8
:1088E000884202D90C2005B0F0BD3046FFF7C2FF28
:1088F0000746002F01D03846F5E705202188685447
:108900002088401C20801220218868542088401C28
:10891000208022885119308800F02DFC21884018D1
:10892000208022885119708800F025FC2188401889
:1089300020800020D7E730B504461088C01C98423C
:1089400001D90C2030BD0220158848551088401CE4
:1089500010800120158848551088401C108015880B
:108960004C551088401C10800020EBE73EB500BF3E
:108970006846007801090901491C009168460078A1
:10898000F02188431030009000BF052216A16846F0
:108990007CDF044600BF2546002D06D000BF002224
:1089A00011462846FFF766FE00BF00BF0020019079
:1089B0000290502168468180A021C1800021018160
:1089C000FF219131418101A87ADF044600BF25468D
:1089D000002D06D000BF002211462846FFF74AFEB0
:1089E00000BF00BF3EBD000048656C6C6F0000001A
:1089F00010B5122000F0FCF9132000F0F9F9142052
:108A000000F0F6F9152000F0F3F9162000F0F0F967
:108A100010BD0000F8B529480078002800D1F8BD45
:108A200027480068002801D1012000E00020054609
:108A300024480068002801D1012000E000200646FB
:108A400000BF002D14D1684651DF0446052C01D12A
:108A500001250CE0002C06D000BF00221146204664
:108A6000FFF708FE03E0164900980968884700BF31
:108A7000002E1AD1144800880090694613480068F7
:108A800061DF0446052C01D101260DE0002C06D043
:108A900000BF002211462046FFF7ECFD04E00B4822
:108AA000006808490968884700BF002D02D0002EE1
:108AB00000D000E0C5E700BF00BFB0E708200020FD
:108AC0001820002014200020102000200C2000205E
:108AD0000C48008CC0B2012812D10A48808C0007D3
:108AE000000F00280CD10748806AF0210840402878
:108AF00006D10448C06A0840002801D1012070470F
:108B00000020FCE7C00F00F01948008CC0B201281B
:108B10002CD11748808C0007000F002826D114485C
:108B2000806AF0210840002806D11148C06A084038
:108B3000002801D1012070470D48806AF0210840CB
:108B4000102806D10A48C06A0840002801D1012037
:108B5000F1E70748806AF0210840302806D1044830
:108B6000C06A0840002801D10120E4E70020E2E7C4
:108B7000C00F00F01348008CC0B201281FD111486B
:108B8000808C0007000F002819D10E48806AF02160
:108B90000840A02806D10B48C06A0840002801D12F
:108BA000012070470748806AF0210840D02806D18C
:108BB0000448C06A0840002801D10120F1E70020E4
:108BC000EFE70000C00F00F030B504461088C01C6D
:108BD000984201D90C2030BD0220158848551088D4
:108BE000401C10801C20158848551088401C10809F
:108BF000012C06D0022C08D0032C0AD0042C10D152
:108C00000BE00020158848550DE0012015884855D7
:108C100009E002201588485505E0032015884855CD
:108C200001E00720D7E700BF1088401C108000201B
:108C3000D1E70000FFF7DCFE14200121002906D156
:108C400000BF012282400C4BDA6000BF06E000BF8B
:108C500001228240084B9A6000BF00BF00BF00F0B5
:108C600019FAFFF7BFFDFFF781FEFFF7BDFC03A078
:108C700000F076FA00BFFEE7000500505374617201
:108C8000742070726F6772616D6D2E2E2E0A000057
:108C9000FFB581B005460E461446A888871C20887B
:108CA000801CC1190498814202D90C2005B0F0BD86
:108CB000FE2F01D90C20F9E7781C218870542088F8
:108CC000401C2080FF20218870542088401C208078
:108CD00022889119288800F04EFA218840182080B7
:108CE000A88800280EDDA868002801D10720DDE74C
:108CF000AA8823889819A968FFF77AFA2088A98892
:108D0000401820800020D1E7FFB583B005460F460C
:108D100014462878012805D16878002802D1072058
:108D200007B0F0BD2088801C0699884209D82878B1
:108D3000012808D12088801C697841180698814252
:108D400001D90C20ECE721880698401A801E86B2D3
:108D500001962188891CC81901A97DDF029002981B
:108D6000002801D00298DBE72878022806D168465F
:108D70008088B04202DC092000900BE008200090BF
:108D80002878012805D16878B04202DC6878019023
:108D900000E0019668468088FE2801D90C20BFE7D4
:108DA00068468088401C218878542088401C208098
:108DB0002188009878542088401C208021886846AB
:108DC0008088081820800020AAE7F0B5059C55008F
:108DD0000D439E00354326023543069E3604354337
:108DE0000526360707273F02F6198700F551F0BD23
:108DF000F8B501210A4600231F46009354000C4396
:108E00009D002C433D022C43009D2D042C43052541
:108E10002D0707263602AD198600AC5100BFF8BDFC
:108E200002465058002801D0012070470020FCE77E
:108E300000224250704701224250704710B504464C
:108E40002088102802D0112808D103E005A000F0E6
:108E500087F904E003A000F083F900E000BF00BF41
:108E600010BD00006F6E5F626C655F6576740A000E
:108E700030B504461088C01C984201D90C2030BD82
:108E80000220158848551088401C10801120158834
:108E900048551088401C108010880C541088401CC5
:108EA00010800020EBE7FEB507460E461446B86A70
:108EB000002801D10720FEBD0020019037E0B96AEB
:108EC0000C22019850430D18A888801C009000982F
:108ED000FE2801D90C20EEE70098401C2188705430
:108EE0002088401C20801620218870542088401C37
:108EF000208022889119288800F03DF921884018A7
:108F00002080A88800280EDDA868002801D107204D
:108F1000D1E7AA8823889819A968FFF769F92088FA
:108F2000A988401820800198401CC0B201902C20D4
:108F3000C15D01988142C2DC0020BCE770B50646E5
:108F40000C46154629462046C046C04670BD000066
:108F50000146002901D10E2070470248016000201F
:108F6000FAE7000014200020FFB581B00C46164639
:108F70001F46002C02D1072005B0F0BD2046810716
:108F8000890F002901D1012100E00021002901D130
:108F90000720F1E70948046009480680094807608E
:108FA0000949019810DF0546002D01D02846E3E766
:108FB00001200649087016202EDFDDE70C20002076
:108FC00010200020042000203D8F010008200020F8
:108FD0000146002901D10E2070470248016000209F
:108FE000FAE70000182000200146C878002801D0C8
:108FF000072070470020FCE710B5044601A000F0F0
:10900000AFF810BD7379735F6576745F64697370D0
:10901000617463680A00000070B504461D4610883C
:109020001230A84201D90C2070BD11201688885535
:109030001088401C10801020168888551088401C0D
:1090400010800F2307E0E05C16888855581E43B255
:109050001088401C1080002BF5DA0020E4E730B5C2
:1090600004461088C01C984201D90C2030BD022053
:10907000158848551088401C10800A2015884855CE
:109080001088401C108015884C551088401C10809A
:109090000020EBE77CB50924002000900346012264
:1090A000114601902046FFF790FE00BF0B240025DB
:1090B000002000902B460246014601902046FFF713
:1090C00084FE00BF13481449052212028918486221
:1090D00000BF0020014602460A430F4B052424022C
:1090E0001B19DA6600BF09200B210B4A2346D21850
:1090F000D060094AD218516100BF00BF0420064960
:109100001A468918086000BF00210348FFF793FE44
:109110007CBD0000005027000020004010B5044630
:1091200008210E48FFF787FEFF211D310B48FFF78E
:109130007FFE00BF0948052109024018C46100BF35
:1091400000BFFF211D310548FFF76AFE0028F8D057
:109150000C210248FFF76FFE10BD00000020004008
:1091600010B5044603E02078641CFFF7D7FF207891
:109170000028F8D110BD02460A70FF2000021040FE
:109180000012487002207047FFB583B015460D9F4E
:109190000C9E019700960222069B0499039800F00A
:1091A00015F80446002C02D0204607B0F0BD019708
:1091B000009610222946069B039800F007F8044603
:1091C000002C01D02046F0E70020EEE7FFB587B085
:1091D00006461D46109C002006902088059000271A
:1091E00049E0B900706841180A8868468280498859
:1091F000C180002202A901A865DF0390039800281E
:1092000002D003980BB0F0BD6846017A09988142FC
:1092100030D10698002801D0002000E00220009004
:1092200020886946097A41180098091811988142E6
:1092300001DD0C20E6E7069800280AD12088401CB2
:1092400020802188089868542088401C20800120B4
:1092500006902088421902A901A865DF03900398AF
:10926000002801D00398CDE721886846007A0818C5
:10927000208000BF7F1C3088B842B2DC06980028EE
:109280000ED021880598401C081A80B204900498DA
:10929000FF2801DD0C20B5E70498C1B205982954D8
:1092A0000020AFE70A180100C8920100002000204A
:1092B0002000000004810100E8920100202000202D
:1092C000A810000020810100000000000000000044
:1092D000000000000000000000000000000000008E
:0892E000000000000024F4006E
:04000005000180C1B5
:00000001FF
