:020000040001F9
:10800000683000209D810100B7810100B981010025
:108010000000000000000000000000000000000060
:10802000000000000000000000000000BB81010013
:108030000000000000000000BD810100BF810100C0
:10804000C1810100C1810100FD830100C1810100E6
:10805000C181010000000000C1810100C181010057
:10806000C1810100C1810100C1810100C181010004
:10807000C1810100C1810100C1810100C1810100F4
:10808000C1810100C1810100C1810100C1810100E4
:10809000C1810100C1810100C1810100C1810100D4
:1080A000C1810100C181010000000000000000004A
:1080B00000000000000000000000000000000000C0
:1080C00000F002F800F03EF80CA030C80838241880
:1080D0002D18A246671EAB4654465D46AC4201D100
:1080E00000F030F87E460F3E0FCCB64601263342F4
:1080F00000D0FB1AA246AB4633431847FC0E0000E3
:108100001C0F0000103A02D378C878C1FAD8520781
:1081100001D330C830C101D504680C60704700003D
:108120000023002400250026103A01D378C1FBD893
:10813000520700D330C100D50B6070471FB51FBD7B
:1081400010B510BD00F0B8F81146FFF7F7FF00F0CA
:108150007FFC00F0D0F803B4FFF7F2FF03BC00F09F
:10816000D7F8000070B505460C46164602E00FCC65
:108170000FC5103E102EFAD2082E02D303CC03C531
:10818000083E042E07D301CC01C5361F03E0217839
:108190002970641C6D1C761EF9D270BD03210C4839
:1081A00002680A4302600B4802680A4302600A48F8
:1081B00080470A480047FEE7FEE7FEE7FEE7FEE7E6
:1081C000FEE7000006480749074A084B70470000D1
:1081D000240500405405004099830100C18001003E
:1081E00068200020683000206828002068280020CF
:1081F000F8B5042A2CD3830712D00B78491C0370DE
:10820000401C521E83070BD00B78491C0370401C86
:10821000521E830704D00B78491C0370401C521E69
:108220008B079B0F05D0C91ADF002023DE1B08C96E
:108230000AE0FFF797FFF8BD1D4608C9FD401C4640
:10824000B4402C4310C0121F042AF5D2F308C91AF7
:10825000521EF0D40B78491C0370401C521EEAD405
:108260000B78491C0370401C012AE4D40978017082
:10827000F8BD01E004C0091F0429FBD28B0701D51A
:108280000280801CC90700D00270704700290BD003
:10829000C30702D00270401C491E022904D3830781
:1082A00002D50280801C891EE3E70022EEE700224F
:1082B000DFE7704770477047754600F025F8AE4617
:1082C000050069465346C008C000854618B020B571
:1082D000FFF778FF60BC00274908B6460026C0C5F6
:1082E000C0C5C0C5C0C5C0C5C0C5C0C5C0C5403D6E
:1082F00049008D46704710B50446C046C04620462A
:10830000FFF729FF10BD000000487047082000203B
:1083100001491820ABBEFEE72600020070470000AE
:1083200010B5002819DA1A4A03071B0F083B9B08EF
:108330009B00D2588307DC0EFF23A3409A438B0790
:108340001B0E8407E40EA3401A43114B0407240FAD
:10835000083CA408A4001A5118E00E4A03231B028B
:10836000D21883089B00D2588307DC0EFF23A3405A
:108370009A438B071B0E8407E40EA3401A43054B58
:10838000032424021B198408A4001A5110BD000004
:108390001CED00E000E100E010B500F0C3FA002899
:1083A00005D0104810494860C8131049886100F092
:1083B0009DFA002802D001200D49886000F0E8FAFB
:1083C00000280ED00B480068012807D00A48094948
:1083D000086000BF074800680128FBD1C02005499C
:1083E000486110BDDFFF07C000050040006C004081
:1083F0000006004000EC06407593000010B5042014
:10840000134903221202891849680140002901D04A
:10841000012100E00021002918D0FF2109310C487A
:1084200000F016FC002811D0FF210931084800F0A7
:1084300017FC00BF06480521090240188069C0B238
:10844000044908700846007800F01AFD10BD0000CD
:108450000020004000200020F7B582B004461646F8
:108460000025378800203080606B00280CD0616BBD
:1084700008783B463246039900F0F8FB0546002D8C
:1084800002D0284605B0F0BD206B00280AD03B463C
:108490003246206B039900F057FC0546002D01D0B1
:1084A0002846EFE72E20005D00280BD02E21085D26
:1084B0003B463246039900F095FA0546002D01D05F
:1084C0002846DFE72D20005D002809D03A463146D6
:1084D000039800F059F90546002D01D02846D1E750
:1084E000A078002809D03A463146039800F0E0F819
:1084F0000546002D01D02846C4E7E07800280BD0BF
:10850000E17848B23B463246039900F0D4F905467B
:10851000002D01D02846B5E7606800280CD0002067
:10852000616808563B463246039900F030FC054628
:10853000002D01D02846A5E7208900280DDD0197F0
:1085400000960622022120460830039B00F0C3FC5F
:108550000546002D01D0284694E7208A00280DDD2D
:10856000019700960722032120461030039B00F05C
:10857000B2FC0546002D01D0284683E7208B002859
:108580000DDD019700961522142120461830039B1B
:1085900000F0A1FC0546002D01D0284672E7206AB4
:1085A00000280AD03B463246206A039900F050F971
:1085B0000546002D01D0284664E7606A00280AD0ED
:1085C0003B463246606A039900F07AFA0546002D70
:1085D00001D0284656E72C20005D00280ADD3B46E6
:1085E00032462046039900F05CFB0546002D01D081
:1085F000284647E7207800280AD03B4632462046E6
:10860000039900F099FA0546002D01D0284639E774
:10861000284637E70146C87804221040002801D1D7
:10862000072070470020FCE700B597B000BF684600
:10863000007A01090901491C02916846007AF0217B
:1086400088431030029000BF0B2215A102A87CDFE6
:10865000164800680190382109A8FFF728FE02217A
:1086600008A80171012181710621C17101216846AB
:10867000818601A90E91002109A800F041F8182176
:1086800003A8FFF714FE0021684601730175FF215E
:108690002D3181830021C18303A873DF17B000BD92
:1086A00048656C6C6F20776F726C6400F48F01000A
:1086B000F8B505460C4617462088001DB84201D97A
:1086C0000C20F8BD684679DF0646002E01D0304602
:1086D000F7E70320218868542088401C2080192057
:1086E000218868542088401C2080208841196846D1
:1086F000008800F0E7FB2188401820800020E0E798
:10870000F3B593B00D461F211291119113980028D3
:1087100014D01398FFF77EFF0446002C02D02046A9
:1087200015B0F0BD12AA09A91398FFF795FE0446EB
:10873000002C01D02046F3E709AE02E0002600201D
:108740001290002D13D0284600F0F6FA0446002CB3
:1087500001D02046E4E711AA01A92846FFF77CFED4
:108760000446002C01D02046DAE701AF02E00027E2
:108770000020119010A88088C3B210A80089C1B24F
:108780003A46304672DFCBE7FEB505460C46174643
:1087900020880930B84201D90C20FEBD684671DF3F
:1087A0000646002E01D03046F7E70820218868549D
:1087B0002088401C20801B20218868542088401C71
:1087C000208021884819062200A90131FFF710FDF9
:1087D0002088801D208068460078002802D12188EA
:1087E000685402E00120218868542088401C2080C1
:1087F0000020D2E701460888062808DB08881922ED
:10880000D201904205DD0888104A904201D007202D
:1088100070474888062808DB48881922D201904210
:1088200005DD4888094A904201D00720F0E7088812
:10883000064A904208D04888904205D008884A8865
:10884000904201DD0720E3E70020E1E7FFFF0000A1
:10885000FFB581B006460D4614462088801D049958
:10886000884202D90C2005B0F0BD3046FFF7C2FFA8
:108870000746002F01D03846F5E7052021886854C7
:108880002088401C20801220218868542088401CA9
:10889000208022885119308800F014FB218840186C
:1088A000208022885119708800F00CFB2188401824
:1088B00020800020D7E730B504461088C01C9842BD
:1088C00001D90C2030BD0220158848551088401C65
:1088D00010800120158848551088401C108015888C
:1088E0004C551088401C10800020EBE70C48008C91
:1088F000C0B2012812D10A48808C0007000F00285E
:108900000CD10748806AF0210840402806D104486D
:10891000C06A0840002801D1012070470020FCE710
:10892000C00F00F01948008CC0B201282CD11748A4
:10893000808C0007000F002826D11448806AF0219F
:108940000840002806D11148C06A0840002801D11B
:10895000012070470D48806AF0210840102806D198
:108960000A48C06A0840002801D10120F1E7074801
:10897000806AF0210840302806D10448C06A0840C7
:10898000002801D10120E4E70020E2E7C00F00F059
:108990001348008CC0B201281FD11148808C0007F9
:1089A000000F002819D10E48806AF0210840A02845
:1089B00006D10B48C06A0840002801D10120704749
:1089C0000748806AF0210840D02806D10448C06AD0
:1089D0000840002801D10120F1E70020EFE7000066
:1089E000C00F00F030B504461088C01C984201D971
:1089F0000C2030BD0220158848551088401C10807E
:108A00001C20158848551088401C1080012C06D069
:108A1000022C08D0032C0AD0042C10D10BE000202B
:108A2000158848550DE001201588485509E00220B9
:108A30001588485505E003201588485501E00720B2
:108A4000D7E700BF1088401C10800020D1E700004D
:108A50001CB5122000F0E4F8132000F0E1F8142017
:108A600000F0DEF8152000F0DBF8162000F0D8F852
:108A700012200121002906D100BF012282400F4BA4
:108A8000DA6000BF06E000BF012282400B4B9A6013
:108A900000BF00BF00BF0021082010DF00200090B1
:108AA000019001206946087000200190684660DF4F
:108AB000FFF7BAFD00F086F900BFFEE700050050A1
:108AC000FFB581B005460E461446A888871C20884D
:108AD000801CC1190498814202D90C2005B0F0BD58
:108AE000FE2F01D90C20F9E7781C218870542088CA
:108AF000401C2080FF20218870542088401C20804A
:108B000022889119288800F0DDF9218840182080FA
:108B1000A88800280EDDA868002801D10720DDE71D
:108B2000AA8823889819A968FFF762FB2088A9887A
:108B3000401820800020D1E7FFB583B005460F46DE
:108B400014462878012805D16878002802D107202A
:108B500007B0F0BD2088801C0699884209D8287883
:108B6000012808D12088801C697841180698814224
:108B700001D90C20ECE721880698401A801E86B2A5
:108B800001962188891CC81901A97DDF02900298ED
:108B9000002801D00298DBE72878022806D1684631
:108BA0008088B04202DC092000900BE00820009091
:108BB0002878012805D16878B04202DC68780190F5
:108BC00000E0019668468088FE2801D90C20BFE7A6
:108BD00068468088401C218878542088401C20806A
:108BE0002188009878542088401C2080218868467D
:108BF0008088081820800020AAE7F0B5059C550061
:108C00000D439E00354326023543069E3604354308
:108C10000526360707273F02F6198700F551F0BDF4
:108C2000F8B501210A4600231F46009354000C4367
:108C30009D002C433D022C43009D2D042C43052513
:108C40002D0707263602AD198600AC5100BFF8BDCE
:108C500002465058002801D0012070470020FCE750
:108C600000224250704701224250704730B50446FE
:108C70001088C01C984201D90C2030BD02201588F4
:108C800048551088401C10801120158848551088C0
:108C9000401C108010880C541088401C108000204C
:108CA000EBE7FEB507460E461446B86A002801D128
:108CB0000720FEBD0020019037E0B96A0C22019820
:108CC00050430D18A888801C00900098FE2801D9F8
:108CD0000C20EEE70098401C218870542088401C2E
:108CE00020801620218870542088401C20802288F3
:108CF0009119288800F0E6F8218840182080A8887B
:108D000000280EDDA868002801D10720D1E7AA8835
:108D100023889819A968FFF76BFA2088A98840185A
:108D200020800198401CC0B201902C20C15D0198A8
:108D30008142C2DC0020BCE70146C878002801D08F
:108D4000072070470020FCE770B504461D461088D8
:108D50001230A84201D90C2070BD11201688885508
:108D60001088401C10801020168888551088401CE0
:108D700010800F2307E0E05C16888855581E43B228
:108D80001088401C1080002BF5DA0020E4E730B595
:108D900004461088C01C984201D90C2030BD022026
:108DA000158848551088401C10800A2015884855A1
:108DB0001088401C108015884C551088401C10806D
:108DC0000020EBE77CB50924002000900346012237
:108DD000114601902046FFF710FF00BF0B2400252D
:108DE000002000902B460246014601902046FFF7E6
:108DF00004FF00BF1E481F4905221202891848625D
:108E000000BF0020014602460A431A4B05242402F3
:108E10001B19DA6600BF09200B21164A2346D21817
:108E2000D060144AD218516100BF00BF042011491C
:108E30001A468918086000BF812080000D4903226E
:108E400012028918486000BF0220012181400A4AAD
:108E5000116000BF0021FFF763FA02200121814069
:108E6000064A116000BF00210248FFF7FCFE7CBDEE
:108E7000005027000020004080E200E000E100E018
:108E800010B5044608210E48FFF7EDFEFF211D3105
:108E90000B48FFF7E5FE00BF09480521090240180D
:108EA000C46100BF00BFFF211D310548FFF7D0FEA0
:108EB0000028F8D00C210248FFF7D5FE10BD0000B5
:108EC0000020004002460A70FF20000210400012FD
:108ED000487002207047FFB583B015460D9F0C9E69
:108EE000019700960222069B0499039800F015F85A
:108EF0000446002C02D0204607B0F0BD0197009632
:108F000010222946069B039800F007F80446002C1F
:108F100001D02046F0E70020EEE7FFB587B0064617
:108F20001D46109C0020069020880590002749E0EF
:108F3000B900706841180A88684682804988C180F3
:108F4000002202A901A865DF03900398002802D03F
:108F500003980BB0F0BD6846017A0998814230D180
:108F60000698002801D0002000E002200090208810
:108F70006946097A4118009809181198814201DD63
:108F80000C20E6E7069800280AD12088401C2080A3
:108F90002188089868542088401C20800120069071
:108FA0002088421902A901A865DF039003980028D0
:108FB00001D00398CDE721886846007A0818208000
:108FC00000BF7F1C3088B842B2DC069800280ED063
:108FD00021880598401C081A80B204900498FF2844
:108FE00001DD0C20B5E70498C1B205982954002092
:108FF000AFE700000A1801001890010000200020CF
:1090000008000000048101002090010008200020D9
:109010006010000020810100000000000024F40026
:04000005000180C1B5
:00000001FF
